:020000040800F2
:10000000A83F0020CD010008D5010008D701000855
:10001000D9010008DB010008DD0100080000000034
:10002000000000000000000000000000DF010008E8
:10003000E101000800000000E3010008E5010008FC
:1000400057090008590900085B0900081B0E000841
:100050005D0900085F0900086109000863090008DC
:10006000650900086709000869090008E701000838
:10007000E7010008E7010008E7010008E7010008C0
:10008000E7010008E7010008E7010008E7010008B0
:10009000E7010008E7010008E701000883090008FC
:1000A0008509000887090008890900088B090008EC
:1000B0008D0900085D0B0008050E0008070E0008FA
:1000C000090E00080B0E00080D0E00080F0E0008A8
:1000D000110E0008130E0008150E0008170E000878
:1000E000190E0008410E00081D0E00081F0E000822
:1000F000210E0008230E0008250E0008270E000818
:10010000290E00082B0E00082D0E00082F0E0008E7
:10011000310E0008330E0008350E0008370E0008B7
:10012000390E00083B0E00083D0E00083F0E000887
:1001300000F002F800F03AF80AA090E8000C8244BF
:100140008344AAF10107DA4501D100F02FF8AFF29C
:10015000090EBAE80F0013F0010F18BFFB1A43F0A5
:10016000010318475CAC00007CAC0000103A24BFCF
:1001700078C878C1FAD8520724BF30C830C144BF0C
:1001800004680C607047000000230024002500264E
:10019000103A28BF78C1FBD8520728BF30C148BFEA
:1001A0000B6070471FB51FBD10B510BD09F03EFEB6
:1001B0001146FFF7F7FF00F0C9F809F05CFE03B441
:1001C000FFF7F2FF03BC09F061FE00000948804719
:1001D00009480047FEE7FEE7FEE7FEE7FEE7FEE729
:1001E000FEE7FEE7FEE7FEE704480549054A064B41
:1001F00070470000E391000831010008A839002091
:10020000A83F0020A83B0020A83B002008B5042000
:10021000ADF8000010208DF8030003208DF80200D7
:100220006946CB4807F0C8FE4DF20110ADF800005A
:1002300010208DF8030003208DF802006946C548A0
:1002400007F0BAFEFF20ADF8000010208DF8030083
:1002500003208DF802006946BF4807F0ADFE082074
:10026000ADF8000010208DF8030003208DF8020087
:100270006946BA4807F0A0FE0120ADF80000102042
:100280008DF8030003208DF802006946B44807F09A
:1002900093FE4FF40070ADF8000018208DF80300B5
:1002A00003208DF802006946AA4807F085FE012167
:1002B000AC4807F052FF4020ADF8000048208DF810
:1002C00003006946A34807F077FE6020ADF8000000
:1002D00004208DF803006946A14807F06DFE08BDB3
:1002E0001CB54FF4E06008F087F91D208DF804007C
:1002F0001C208DF8000000208DF805008DF8060008
:1003000001208DF8070001A808F07BF900208DF886
:1003100001008DF8020001208DF80300684608F006
:1003200070F91CBD10B508F05CFF0121084608F00B
:10033000FFF80121084608F0EEF80121480208F014
:10034000F7F801217C2008F0F3F810BD08B500246F
:100350000025FFF7E7FFFFF7C3FF01F081FCFFF780
:1003600055FF072008F01FF907F019F908F0DAFB2C
:1003700008F0A8FC00F086F907F038FA01F073FEE7
:10038000322001F0E8FD08F0ADFF09F09DFCDEE051
:1003900000F0ADF90446E4B173480078302805D187
:1003A000724A5188108809F03DF808E06E480078DC
:1003B000312804D16D4A5188108809F010FB00BF24
:1003C00000F095F90446002CFAD14AF6AA2008F06C
:1003D0003BFC09F0DBFC0546002D79D0202160486C
:1003E00007F07DFE00287ED1614808F02DFC202119
:1003F0005B4807F074FE002875D100BF20215848E3
:1004000007F06DFE0028F9D000205A49086008F076
:10041000E3FF09F089FC0121514807F07AFE5448B6
:1004200008F012FC5DE0534800685349884222DD21
:100430000020504908600121494807F06CFE08F08F
:10044000CBFF4948007830280ED108F093FF3C21BB
:10045000642008F0E7FF1F20462341223821009046
:10046000342008F02AFE05E03F480078312801D109
:1004700008F080FF36E02021394807F030FE40BB0D
:100480003B4808F0E1FB2021354807F028FE00BB7F
:1004900000BF2021324807F022FE0028F9D00121B8
:1004A0002F4807F038FE08F097FF2F4800783028D3
:1004B00010D108F05FFF3C21642008F0B3FF1F203B
:1004C0004623412238210090342008F0F6FD07E051
:1004D00009E006E024480078312801D108F04AFFFD
:1004E00000E0A0E700BF40211D4807F0F8FD20BB59
:1004F0001F4808F0A9FB4021194807F0F0FDE0B9BA
:1005000000BF4021164807F0EAFD0028F9D008F0A6
:10051000E9FE15480078302803D1312012490870CF
:1005200002E03020104908700F480078302805D1CB
:10053000312001F010FD09F08BFB08E00A4800783B
:10054000312804D1322001F006FD09F0BDFB1FE780
:1005500000080140000C014000100140001401405F
:100560000018014000081A0004000020F4000020D8
:10057000FFFF030000000020C027090008B540204D
:10058000ADF8000004208DF8030069466A4807F0C2
:1005900013FD08BD08B54020ADF8000003208DF81C
:1005A000020010208DF803006946634807F004FD3F
:1005B00008BD01B502E00098401E00900098002898
:1005C000F9D108BD2DE9F04104460E4617464FF01B
:1005D000000800F0D5F8702000F059F900F0FEF89E
:1005E000201200F054F900F0F9F8E0B200F04FF9F1
:1005F00000F0F4F800250BE0705D00F048F900F021
:10060000EDF88046B8F1000F00D003E0681CC5B2D9
:10061000BD42F1DB00BF00F0CCF84046BDE8F08100
:100620002DE9F04105460F461646002400F0A8F8D3
:10063000702000F02CF900F0D1F8281200F027F912
:1006400000F0CCF8E8B200F022F900F0C7F800F0B2
:1006500097F8712000F01BF900F0C0F800BF0BE024
:10066000711EA14201D0012100E00021084600F0E6
:1006700039F93855601CC4B2B442F1DB00F099F886
:10068000BDE8F08108B5C020ADF8000010208DF85D
:10069000030003208DF802006946284807F08CFC0F
:1006A0004021264807F035FD8021244807F031FD20
:1006B00000F04FF88021214807F02DFD2048FFF77A
:1006C00078FF80211D4807F024FD1D48FFF771FFCA
:1006D0004020ADF8000028208DF803006946174837
:1006E00007F06AFC1648FFF764FF002008BD1CB540
:1006F0000020009001900024072269468020FFF727
:100700008FFF9DF80200012813D19DF804009DF889
:10071000031001F0010100EB01200A4908809DF857
:1007200006009DF8051000EB0120064948800124D1
:1007300000E0002420461CBD00080140000C0140E0
:1007400040420F00F400002010B50120FFF731FFF8
:1007500010BD08B56020ADF8000010208DF8030032
:1007600003208DF802006946734807F025FC20211C
:10077000714807F0CEFC40216F4807F0CAFC08BD65
:1007800010B5FFF707FF40216B4807F0C2FC20219E
:10079000694807F0BEFC0320FFF70BFF40216648C5
:1007A00007F0B9FCFFF7D0FF2021634807F0B3FC46
:1007B00010BD10B5FFF7EEFE20215F4807F0A9FC41
:1007C0000320FFF7F6FE40215B4807F0A4FCFFF78B
:1007D000BBFF4021584807F09CFC10BD10B5002419
:1007E000FFF7CCFE4021544807F093FC20215248EB
:1007F00007F08FFCFFF7A8FF09E0601CC4B2FA2CD9
:1008000003DDFFF7D6FF012010BDFFF79DFF40215C
:10081000494807F064FC0028EFD12021464807F042
:100820007AFC0020F0E710B52021434807F073FC64
:10083000FFF7B0FEFFF788FF40213F4807F06BFC51
:10084000FFF782FF20213C4807F063FCFFF77CFFA5
:100850002021394807F05FFC10BD10B52021364833
:1008600007F059FCFFF796FEFFF76EFF4021324874
:1008700007F04FFCFFF768FF20212F4807F049FCE5
:10088000FFF762FF20212C4807F045FC10BD70B532
:100890000446FFF77FFE2021274807F03CFCFFF7C6
:1008A00053FF00251BE004F0800020B140212248C6
:1008B00007F02FFC03E040211F4807F02CFC6006E6
:1008C000040E20211C4807F024FCFFF73DFF2021E7
:1008D000194807F020FCFFF737FF681CC5B2082D48
:1008E000E1DB70BD70B505460024FFF747FE01202F
:1008F000FFF75FFE002614E020210F4807F00BFCF5
:10090000FFF722FF20210C4807F003FC6006040ECD
:100910004021094807F0E3FB08B1601CC4B2701C19
:10092000C6B2082EE8DB15B9FFF797FF01E0FFF725
:100930007AFF204670BD000000080140704700BFEC
:10094000FEE700BFFEE700BFFEE700BFFEE770471F
:1009500070477047704770477047704770477047DF
:1009600070477047704770477047704770477047CF
:1009700070477047704770477047704770477047BF
:1009800070477047704770477047704710B5042133
:10099000080701F050F998B10421080701F05CF94B
:1009A0004FF0804001F02BF9FE49086008460088AE
:1009B000FD4A1288104481B24FF0804001F00CF9DA
:1009C000FA480068401CF9490860F9480068401C72
:1009D000F7490860F7480068401CF6490860F64887
:1009E0000068401CF4490860F4480068401CF34962
:1009F0000860F3480068642191FBF0F0EC49096855
:100A000088421DDDEF480068401CEE490860EE4852
:100A100000684000801C0968884217DDE9490868C1
:100A200000EBD0714910A0EB410121B98021E748CA
:100A300007F06FFB0AE08021E44807F06CFB05E05B
:100A40000020DB4908600120DE490860DC4840687E
:100A5000642191FBF0F0D749096888421DDDDC482C
:100A60000068401CDA490860D74840684000801C94
:100A70000968884217DDD649086800EBD071491033
:100A8000A0EB410121B94021D04807F042FB0AE028
:100A90004021CE4807F03FFB05E00020C549086033
:100AA0000120CB490860C6488068642191FBF0F0C2
:100AB000C149096888421DDDC6480068401CC54917
:100AC0000860C14880684000801C0968884217DDC2
:100AD000C049086800EBD0714910A0EB410121B971
:100AE0002021BA4807F015FB0AE02021B74807F09B
:100AF00012FB05E00020B04908600120B5490860FC
:100B0000AF48C068642191FBF0F0AC4909688842A5
:100B10001DDDB1480068401CAF490860AA48C068A4
:100B20004000801C0968884217DDAB49086800EB6B
:100B3000D0714910A0EB410121B91021A34807F061
:100B4000E8FA0AE01021A14807F0E5FA05E00020E4
:100B50009A4908600120A049086010BD08B5082125
:100B60009E4801F068F880B108219C4801F074F8B3
:100B70009A4801F047F89A4908600846008800F250
:100B8000654081B2954801F029F896480068401CFC
:100B90009449086008460068642838DD0020086031
:100BA000914908809148008840F6C23188422FDB85
:100BB0004FF6FF70142340F2CF120C21009040F248
:100BC000B91008F07AFA1F20142340F2CF120C213A
:100BD0000090101F08F071FA1F20142340F2C91270
:100BE0000C210090101F08F068FA1F20142340F217
:100BF000C3120C210090101F08F05FFA1F2014236D
:100C000040F2BD120C210090101F08F056FAF8E0D7
:100C100076480088B0F5396F21DB7448008840F6CB
:100C2000C23188421BDA1F20142340F2CF120C215C
:100C30000090101F08F041FA1F20142340F2C9123F
:100C40000C210090101F08F038FA1F20142340F2E6
:100C5000C3120C210090101F08F02FFAD1E0634856
:100C6000008840F65E3188422BDB60480088B0F592
:100C7000396F26DA4FF6FF70142340F2CF120C21A1
:100C8000009040F2B91008F018FA1F20142340F227
:100C9000CF120C210090101F08F00FFA1F20142310
:100CA00040F2C9120C210090101F08F006FA1F2014
:100CB000142340F2C3120C210090101F08F0FDF91C
:100CC0009FE04A48008840F62C31884218DB4748AC
:100CD000008840F65E31884212DA1F20142340F269
:100CE000CF120C210090101F08F0E7F91F201423E9
:100CF00040F2C9120C210090101F08F0DEF980E0CC
:100D00003A48008840F6FA21884223DB37480088B9
:100D100040F62C3188421DDA4FF6FF70142340F262
:100D2000CF120C21009040F2B91008F0C6F91F2034
:100D3000142340F2CF120C210090101F08F0BDF9CF
:100D40001F20142340F2C9120C210090101F08F03C
:100D5000B4F956E02548008840F6C82188420FDBE8
:100D60002248008840F6FA21884209DA1F2014231D
:100D700040F2CF120C210090101F08F09EF940E0C5
:100D80001A48008840F6C82188423ADA4FF6FF70C8
:100D9000142340F2CF120C21009040F2B91008F059
:100DA0008CF925E00800002014000020000000203D
:100DB0002000002028000020300000203800002003
:100DC00028390020240000200839002000100140AC
:100DD0002C000020340000203C00002000040040D3
:100DE0000C00002040000020D200002094000020D1
:100DF0001F20142340F2CF120C210090101F08F086
:100E00005CF908BD7047704770477047704770477E
:100E1000704770477047704770477047704770471A
:100E2000704770477047704770477047704770470A
:100E300070477047704770477047704770477047FA
:100E40007047000010B50446FE48844208D10121D5
:100E5000C01407F087FB0021E01407F083FBC4E017
:100E6000B4F1804F08D10121084607F088FB00212A
:100E7000012007F084FBB8E0F348844208D1012147
:100E8000022007F07CFB0021022007F078FBACE099
:100E9000EE48844208D10121042007F070FB0021B4
:100EA000042007F06CFBA0E0E948844208D101214E
:100EB000082007F064FB0021082007F060FB94E0A5
:100EC000E448844208D10121102007F058FB00219A
:100ED000102007F054FB88E0DF48844208D101214C
:100EE000202007F04CFB0021202007F048FB7CE08D
:100EF000DA48844208D10121401407F033FB002175
:100F0000601407F02FFB70E0D548844209D101211D
:100F1000C80407F027FB00214FF4002007F022FB54
:100F200063E0D048844209D10121080507F01AFB8B
:100F300000214FF4801007F015FB56E0CA488442A8
:100F400009D10121480507F00DFB00214FF40010E5
:100F500007F008FB49E0C548844208D10121402040
:100F600007F00DFB0021402007F009FB3DE0C048E1
:100F7000844208D10121802007F001FB002180205C
:100F800007F0FDFA31E0BB48844208D10121801509
:100F900007F0F5FA0021A01507F0F1FA25E0B648B0
:100FA000844209D10121080407F0DCFA00214FF442
:100FB000803007F0D7FA18E0B048844209D1012107
:100FC000480407F0CFFA00214FF4003007F0CAFAC6
:100FD0000BE0AB48844208D10121880407F0C2FA33
:100FE00000214FF4802007F0BDFA10BD00220288D6
:100FF000944B98420ED0994B98420BD0B0F1804F51
:1010000008D0914B984205D0904B984202D0904B1B
:10101000984204D14FF68F731A404B881A438D4B78
:10102000984207D08C4B984204D04FF6FF431A40A9
:10103000CB881A4302808B8883850B880385814B7C
:1010400098420BD0854B984208D08B4B984205D0E4
:101050008A4B984202D08A4B984201D10B7A038680
:1010600001238382704770B5002400220023058C81
:101070004FF6FE7635400584028C8388048B4FF64C
:101080008F752C40B51E2C400D882C43751E2A40B0
:101090000D892A434D882A436A4DA8420BD06F4DD3
:1010A000A84208D0744DA84205D0744DA84202D081
:1010B000734DA84213D14FF6F7752A404D892A4344
:1010C0004FF6FB752A408D882A434FF6FF652B406B
:1010D0004FF6FF552B408D892B43CD892B438380C1
:1010E0000483CD888586028470BD70B500240022FB
:1010F0000023058C4FF6EF7635400584028C8388FB
:10110000048B48F6FF752C404FF6FF452C400D88A8
:101110004FF6FF7606EA05252C434FF6DF752A4089
:101120000D8906EA05152A434D8806EA05152A4366
:10113000444DA84202D0494DA8421DD14FF67F75BB
:101140002A404D894FF6FF7606EA05152A434FF6E9
:10115000BF752A408D8806EA05152A434FF6FF35EC
:101160002B404FF2FF752B408D8906EA85052B43F6
:10117000CD8906EA85052B4383800483CD880587C6
:10118000028470BD70B5002400220023058C4FF648
:10119000FF6635400584028C8388848B4FF68F75FB
:1011A0002C404FF6FC752C400D882C434FF6FF5514
:1011B0002A400D894FF6FF7606EA05252A434D8819
:1011C00006EA05252A431F4DA84202D0234DA84216
:1011D0001DD14FF2FF752A404D894FF6FF7606EA82
:1011E00005252A434FF6FF352A408D8806EA052556
:1011F0002A434EF6FF752B404DF6FF752B408D8927
:1012000006EA05152B43CD8906EA05152B43838095
:101210008483CD888587028470BD70B50022002349
:101220000024058C4EF6FF7635400584038C8488B7
:10123000828B48F6FF752A404FF6FF452A400D88FD
:1012400020E00000002C01400004004000080040A5
:10125000000C004000100040001400400034014029
:10126000004C014000500140005401400018004073
:10127000001C0040002000400040014000440140AC
:10128000004801404FF6FF7606EA05252A434DF651
:10129000FF752B400D8906EA05352B434D8806EA7C
:1012A00005352B43FA4DA84202D0FA4DA84208D189
:1012B0004BF6FF752C408D894FF6FF7606EA8515B3
:1012C0002C4384808283CD88A0F84050038470BD75
:1012D000828B4FF2FF331A408283828B4FF6FF736B
:1012E00003EA01231A4382837047F0B50C46154682
:1012F000002200210026078C4EF6FF7C07EA0C072F
:101300000784828B018C4FF6FF7707EA043640F69C
:10131000FF473A404FF6FF7707EA05273A434FF673
:10132000FF7707EA03373A43D94FB8420ED0D94F77
:10133000B8420BD0B0F1804F08D0D74FB84205D09B
:10134000D64FB84202D0D64FB84206D14DF6FF77FD
:10135000394046F48057394305E047F6FF57394096
:1013600044F48057394382830184F0BD828B4FF669
:10137000F3731A408283828B0A4382837047F0B5ED
:101380000C461546002200210026078C4FF6FF6C04
:1013900007EA0C070784828B018C4FF6FF7707EA78
:1013A00004264FF60C773A404FF6FF7707EA03170B
:1013B0002F433A43B64FB8420ED0B64FB8420BD087
:1013C000B0F1804F08D0B44FB84205D0B34FB84207
:1013D00002D0B34FB84206D14FF6FF57394046F41A
:1013E0008077394305E04FF2FF57394044F4807766
:1013F000394382830184F0BD028B4FF2FF331A40E0
:101400000283028B4FF6FF7303EA01231A43028320
:101410007047F0B50C461546002200210026078CC7
:101420004FF6EF7C07EA0C070784028B018C4FF61E
:10143000FF7707EA041640F6FF473A404FF6FF777A
:1014400007EA03373A434FF6FF7707EA05273A439F
:101450008F4FB8420ED08F4FB8420BD0B0F1804FB3
:1014600008D08D4FB84205D08C4FB84202D08C4F77
:10147000B84206D14FF6DF77394046F010073943BE
:1014800005E04FF65F77394044F010073943028397
:101490000184F0BD028B4FF6F3731A400283028B76
:1014A0000A4302837047F0B50C461546002200211E
:1014B000068C4FF6FE773E400684028B018C4FF679
:1014C0000C7632407E1C06EA03162E433243704EE1
:1014D000B0420ED06F4EB0420BD0B0F1804F08D06A
:1014E0006D4EB04205D06D4EB04202D06C4EB0424F
:1014F00006D14FF6FD76314044F00106314305E058
:101500004FF6F576314044F0010631430283018401
:10151000F0BD70B505460C465D4885420ED05D486D
:1015200085420BD0B5F1804F08D05B48854205D08D
:101530005A48854202D05A48854200D100E000BF97
:10154000208850B92389A28861882846FFF7ABFF1D
:10155000E1882846FFF79EFF25E0208804280AD16D
:101560002389A28861882846FFF753FFE18828462F
:10157000FFF742FF17E0208808280AD12389A288B4
:1015800061882846FFF7FBFEE1882846FFF7EEFE5C
:1015900009E02389A28861882846FFF7A6FEE18832
:1015A0002846FFF795FE70BD2DE9F04105460C4633
:1015B00000260127608808B9022600E00026A088DE
:1015C000012801D1022700E001272088A0B9238942
:1015D000A28861882846FFF766FFE1882846FFF762
:1015E00059FF23893A4631462846FFF712FFE18822
:1015F0002846FFF701FF13E02389A2886188284667
:10160000FFF707FFE1882846FFF7F6FE23893A46F1
:1016100031462846FFF747FFE1882846FFF73AFFA3
:10162000BDE8F0810A884B881A438B881A43CB881F
:101630001A430B891A434B891A438B891A43A0F822
:10164000442070474FF6FF71818000210180C180E6
:101650004180017270470021018041808180C180FA
:10166000018141818181C1817047002101804180D8
:10167000012181800021C18001817047002101800A
:1016800041808180C180018141818181704700005A
:10169000002C0140003401400004004000080040DC
:1016A000000C004021B1028842F00102028004E0F7
:1016B00002884FF6FE731A400280704731B1B0F8CD
:1016C000442042F40042A0F8442005E0B0F8442051
:1016D000C2F30E02A0F8442070471AB183890B436D
:1016E000838102E083898B438381704781827047C5
:1016F00041EA0203A0F8483070471AB183890B43CE
:10170000838102E083898B438381704701894FF68F
:10171000F8721140018170470A46002101894FF695
:101720008F73194011430181704730B504460D464F
:1017300029462046FFF7F0FF208940F0070020816E
:1017400030BD2DE9F04104460D4616461F46602D7A
:1017500006D13B46012231462046FFF75AFE05E0FE
:101760003B46012231462046FFF79DFE2946204692
:10177000FFF7D2FF208940F007002081BDE8F0810B
:1017800030B50C4600210189C9B24FF6FF7505EA54
:101790000325154325432943018130BD2DE9F0413F
:1017A00005460E4617469846002443463A463146BB
:1017B0002846FFF7E5FF2C894FF6F870044044F007
:1017C00007044FF68F70044044F070042C81BDE88C
:1017D000F081F0B504460D4616461F463B4632469C
:1017E00029462046FFF7CCFF208940F48040208125
:1017F000F0BD0185828270470A46002101884FF6BC
:101800008F731940114301807047F0B50C4615469F
:101810001E460021002200230189028B038C4FF613
:10182000F877394021434FF6FC473A4040F2011720
:101830003A434FF6DD773B404FF6FF7707EA06174E
:101840002F433B43018102830384F0BD0A460021FC
:10185000018B4FF68F7319401143018370470A467D
:101860000021018B48F6FF7319404FF6FF7303EA1E
:1018700002231943018370470A460021818B4FF6EA
:101880008F7319401143818370470A460021818B71
:1018900048F6FF7319404FF6FF7303EA022319431A
:1018A0008183704721B1028842F08002028004E007
:1018B00002884FF67F731A400280704721B18288F8
:1018C00042F00402828004E082884FF6FB731A40E3
:1018D0008280704721B1828842F00802828004E051
:1018E00082884FF6F7731A408280704721B1828850
:1018F00042F00102828004E082884FF6FE731A40B3
:10190000828070470A460021018B4FF6F773194019
:101910001143018370470A460021018B4FF2FF7388
:1019200019404FF6FF7303EA0223194301837047FE
:101930000A460021818B4FF6F773194011438183CA
:1019400070470A460021818B4FF2FF7319404FF612
:10195000FF7303EA02231943818370470A4600217B
:10196000018B4FF6FB7319401143018370470A4600
:101970000021018B4FF6FF3319404FF6FF7303EA46
:1019800002231943018370470A460021818B4FF6D9
:10199000FB7319401143818370470A460021818BF4
:1019A0004FF6FF3319404FF6FF7303EA0223194342
:1019B000818370470A460021018B4FF67F731940DF
:1019C0001143018370470A460021018BC1F30E01C8
:1019D0004FF6FF7303EA02231943018370470A4657
:1019E0000021818B4FF67F7319401143818370472B
:1019F0000A460021818BC1F30E014FF6FF7303EA03
:101A000002231943818370470A460021018C4FF657
:101A1000FD7319401143018470470A460021018C6F
:101A20004FF6F77319401143018470470A460021AD
:101A3000018C4FF6DF7319404FF6FF7303EA021370
:101A40001943018470470A460021018C4FF67F73C9
:101A500019404FF6FF7303EA0213194301847047DC
:101A60000A460021018C4FF6FF5319404FF6FF73D1
:101A700003EA02231943018470470A460021018CBE
:101A80004FF2FF7319404FF6FF7303EA0223194325
:101A9000018470470A460021018C4DF6FF731940FE
:101AA0004FF6FF7303EA023319430184704730B5E0
:101AB000002301248C40A3B2048C9C430484048C36
:101AC00002FA01F5ADB22C43048430BD30B50023D9
:101AD00004248C40A3B2048C9C430484048C02FA3A
:101AE00001F5ADB22C43048430BD70B5034600202F
:101AF00000241846183001258D40ACB21D8CA5433A
:101B00001D8409B1082909D100EB6100056825F0A1
:101B1000700505600568154305600EE00D1FC5F3EF
:101B20004E052844056825F4E045056005684FF634
:101B3000FF7606EA02263543056070BD21B10288B2
:101B400042F00202028004E002884FF6FD731A4060
:101B50000280704721B1028842F00402028004E052
:101B600002884FF6FB731A400280704721B18288C9
:101B700042F08002828004E082884FF67F731A4030
:101B80008280704702884FF6F7731A4002800288FD
:101B90000A430280704782884FF68F731A40828012
:101BA00082880A438280704702894FF6F8731A4090
:101BB000028102890A430281704702894FF67F73CE
:101BC0001A40028102890A4302817047818470476A
:101BD000818570478186704701877047818770478C
:101BE000A0F84010704702884FF6FF431A40028069
:101BF00002880A43028070470146888E704701467A
:101C0000088F70470146888F70470146B1F8400041
:101C100070470146888C70470146088D7047024620
:101C20000020138A0B400BB1012000E00020704718
:101C3000CA430282704730B50246002000230024C8
:101C4000158A05EA0103958905EA010413B10CB16F
:101C5000012000E0002030BDCA430282704700002E
:101C600010B50121022006F070FC0121084606F0A3
:101C70006CFC0121042006F068FC3F202849088004
:101C8000002048804FF6FF7088800020C8802548DB
:101C9000FFF7ACF901212348FFF704FD01220821D9
:101CA0002048FFF71AFD3F201F4908800020488088
:101CB0004FF6FF7088800020C8804FF08040FFF70B
:101CC00095F901218807FFF7EDFC0122042108079F
:101CD000FFF703FD022015490880002048800220FC
:101CE00088800020C88008721148FFF77FF97020B3
:101CF0001049088001204880C880022008810C48D3
:101D0000FFF78BFA08210A48FFF71BFE012108485C
:101D1000FFF7C8FC012210210548FFF7DEFC10BDCB
:101D200008010020000400402001002038010020AC
:101D30000008004050010020F8B504460D46164644
:101D4000A76F3DB16B4632462946384601F052FA3C
:101D50000098F8BDB8688119384601F0A2FC08B9AE
:101D60003046F6E70020F4E72DE9F043079D88426E
:101D700001DC9A4201DDBDE8F083DFF86483D8F826
:101D80000080404511DCDFF85C83D8F800804145D5
:101D90000BDBDFF85483D8F80080424505DCDFF820
:101DA0004C83D8F80080434500DAE4E7A3EB02084F
:101DB00008F10106A1EB000808F101040027DFF893
:101DC0002C83D8F80080424515DADFF82083D8F854
:101DD0000080A8EB020808FB04F805EB4805DFF8D3
:101DE0000C83D8F80080A8EB0208A6EB0806DFF801
:101DF000FC82D8F80020DFF8F082D8F80080434554
:101E00000BDDDFF8E482D8F80080A3EB0808A6EB2E
:101E10000806DFF8D482D8F80030DFF8C882D8F896
:101E2000008040451ADADFF8BC82D8F80080A8EBC1
:101E3000000805EB4805DFF8AC82D8F80080A8EB75
:101E40000008A4EB0804DFF89C82D8F80080A8EB17
:101E500000084744DFF88C82D8F80000DFF8808261
:101E6000D8F80080414512DDDFF87482D8F8008090
:101E7000A1EB0808A4EB0804DFF86482D8F800801E
:101E8000A1EB08084744DFF85882D8F800104FF05B
:101E90002A084FF0C049A9F80080C0F30F28DFF8E6
:101EA0005092A9F8008000F0FF08A9F80080C1F363
:101EB0000F28A9F8008001F0FF08A9F800804FF072
:101EC0002B084FF0C049A9F80080C2F30F28DFF8B3
:101ED0002092A9F8008002F0FF08A9F80080C3F35F
:101EE0000F28A9F8008003F0FF08A9F800804FF040
:101EF0002C084FF0C049A9F8008000BFA44600BFDD
:101F0000B5F80080DFF8E891A9F80080AD1CACF1CD
:101F100001085FEA080CF3D1A6F101085FEA0806A0
:101F2000ECD100BF27E7F8B505460E46144600BFC2
:101F30000096E388A28861882088FFF715FF0120BA
:101F4000F8BD10B5674C2060654C2160674C22607D
:101F5000654C236010BD2DE9F0419CB0054634214D
:101F600002A807F039FF002000F0F0F861490020D6
:101F700001F07EF802A90FA801F06AFC00286FD1D9
:101F800067E09DF8600000F02000002861D09DF817
:101F9000610000B963E09DF86100A84253D1312D82
:101FA00008D14FF4887300224FF4F0711046FFF708
:101FB000C8FF09E0322D07D14FF4887300224FF497
:101FC000F0711046FFF7BDFF4BA10DF1610007F066
:101FD000F1FE07464AA10DF1610007F0EBFE06464F
:101FE00007B986B301220DF16101474801F053F8AA
:101FF0004649087044484FF40053454AAFF2C721A0
:102000000090444802F02CFD8046B8F1000F1AD130
:1020100000240EE03F48C069E040B0F5F07F06D8EC
:102020003C48006AE040B0F5887F00D803E0601CBF
:10203000C4B2032CEEDB00BF2246AFF215113548C7
:1020400002F0DCFE8046304801F020FBFF2006F065
:10205000FBFD16A90FA801F033FC002891D000BFAA
:102060001CB0BDE8F08110B503F0CBFD2A49087023
:102070002A4803F033FA284908702849B1F84C106F
:10208000080403F013FA244908704FF4006003F0C9
:10209000C5F921490870002002F0B0FF1E49087000
:1020A000084600782A2807D14FF4007200211C4806
:1020B00003F04BFE18490870174800782A2807D10A
:1020C0004FF6FF7317A26421C82006F0E2FF06E076
:1020D0004FF6FF7319A26421C82006F0DAFF10BD85
:1020E000500000204C000020540000204800002038
:1020F00000000260B01100202E4A5047000000008E
:102100002E6A706700000000E013002058000020D5
:10211000A41800202818002044000020600100209E
:10212000B009002053445F436172645F5375636379
:1021300065737366756C6C790000000053445F43EF
:102140006172645F4661696C000000000146002016
:1021500070470146002070472DE9F04107460C46C4
:1021600015461E46012E04D169025A02204603F08C
:10217000ECFD0020BDE8F0812DE9F04107460C465A
:1021800015461E46012E04D169025A02204604F06B
:1021900069F90020BDE8F081034600207047002067
:1021A0007047000070B503460C4603E014F8015B6D
:1021B00003F8015B1500A2F10102F7D170BD30B543
:1021C000034601E003F8011B1400A2F10102F9D15A
:1021D00030BDF0B503461C460D46002000BF16007A
:1021E000A2F1010207D014F8017B15F801CBA7EB8F
:1021F0000C063000F3D0F0BD024600E0521C10780F
:1022000010B110788842F9D1107870472DE9F0416B
:1022100004460D46E66AAE422FD0207908B36078B6
:102220000123324604F13001FFF7A6FF10B101206F
:10223000BDE8F08100202071D4E907100844B042C5
:102240000FD9E7780AE0E069064460780123324656
:1022500004F13001FFF790FF781EC7B2012FF2DCC6
:1022600000BF55B1607801232A4604F13001FFF721
:1022700073FF08B10120DBE7E5620020D8E770B505
:10228000044600212046FFF7C1FF0546002D59D125
:10229000207803284FD1607900284CD00020E062DC
:1022A0004FF40072002104F13000FFF788FF552140
:1022B00084F82E12AA2184F82F12522084F83000BC
:1022C0005221312001556121322001554121332015
:1022D0000155722184F8141284F81512412184F8F2
:1022E0001612612184F81712217C84F81812208AB2
:1022F000010A84F819122069010C84F81A12206965
:10230000010E84F81B12217B84F81C12A089010A9B
:1023100084F81D12E068010C84F81E12E068010EBA
:1023200084F81F126078012304F130016269FFF71D
:1023300023FF00206071607800221146FFF72CFF18
:1023400000B10125284670BD0246891E9069801E95
:10235000884201D8002070479378906A01FB0300FF
:10236000F9E72DE9F04105460C46022C02D3A86995
:10237000A04202D80120BDE8F0812878012804D0CD
:1023800002282CD003285AD13DE0274607EB5707F7
:10239000286A00EB57212846FFF738FF00B14EE0CE
:1023A000C7F3080105F1300010F801807F1C286A8E
:1023B00000EB57212846FFF729FF00B13FE0C7F3A4
:1023C000080105F13000405C48EA002804F00100F3
:1023D00010B14FEA1810CEE7C8F30B00CBE7286A1C
:1023E00000EB14212846FFF711FF00B127E040F26F
:1023F000FF1000EA440105F130000E1830787178C2
:1024000040EA0120B7E7286A00EBD4112846FFF71D
:10241000FDFE00B113E040F2FF1000EA840105F177
:1024200030000E18F0780006B17840EA014071786B
:1024300040EA01203178084320F070409BE700BF5C
:102440004FF0FF3097E72DE9F04705460E46174657
:10245000022E02D3A869B04202D84FF002088AE0E7
:102460002878012804D0022841D003287DD154E0E7
:10247000B14609EB5909286A00EB59212846FFF7B4
:10248000C5FE8046B8F1000F00D071E0C9F3080125
:1024900005F130000C1806F0010020B1F9B22078E7
:1024A00061F31F1000E03846207009F10109012096
:1024B0002871286A00EB59212846FFF7A7FE8046BD
:1024C000B8F1000F00D053E0C9F3080105F1300066
:1024D0000C1806F0010010B1C7F3071005E02078D2
:1024E00000F0F000C7F303210843207040E0286AA1
:1024F00000EB16212846FFF789FE8046B8F1000F51
:1025000000D035E040F2FF1000EA460105F130004E
:102510000C182770380A60702AE0286A00EBD61180
:102520002846FFF773FE8046B8F1000F00D01FE089
:1025300040F2FF1000EA860105F130000C18E07847
:102540000006A17840EA0140617840EA0120217844
:10255000084300F0704007432770380A6070380C59
:10256000A070380EE07003E0FFE74FF0020800BFF4
:1025700000BF012028714046BDE8F0872DE9F041F9
:1025800004460E46022E02D3A069B04201D80227AB
:1025900025E000271FE031462046FFF7E2FE054612
:1025A00005B91BE0012D01D1022717E0681C08B90D
:1025B000012713E0002231462046FFF744FF07467B
:1025C00007B10BE02069401C20B12069401C20614C
:1025D000012060712E46A069B042DCD800BF3846A9
:1025E000BDE8F0812DE9F04704468946B9F1000FB6
:1025F00006D1E76817B1A069B84211D801270FE0EA
:1026000049462046FFF7ADFE0646022E02D20120C3
:10261000BDE8F087A069B04201D93046F8E74F46DF
:102620003D4600BF6D1CA069A84204D80225BD42EA
:1026300001D90020ECE729462046FFF792FE064626
:1026400006B909E0701C08B1012E01D13046DFE760
:10265000BD42E7D10020DBE700BF6FF070422946A2
:102660002046FFF7F0FE8046B8F1000F08D1B9F11F
:10267000000F05D02A4649462046FFF7E4FE804673
:10268000B8F1000F09D1E5602069401C68B12069EC
:10269000401E20610120607107E0B8F1010F02D1F6
:1026A0004FF0FF3000E0012005462846B0E72DE955
:1026B000F04104460E46E680A568012D03D020684F
:1026C0008069A84202D80220BDE8F0812DB92068B7
:1026D0000078032801D12068456A65B9E560206863
:1026E0000089B04201DC0220EEE72068406A00EB7E
:1026F0001610206120E020688078070112E029464A
:102700002068FFF72EFE0546681C08B90120DBE7AC
:10271000022D03D320688069A84201D80220D3E7A4
:10272000F01B86B2BE42EADAE56029462068FFF770
:102730000BFE00EB161020612068303006F00F0110
:1027400000EB411060610020BEE72DE9F041044636
:10275000884600BFE088401C86B20EB1206910B9DF
:102760000420BDE8F08106F00F0000286FD1206939
:10277000401C2061E06828B920680089B04266DC0E
:102780000420EEE720688078401E00EA161000283A
:102790005DD1E1682068FFF7E4FD0546012D01D811
:1027A0000220DEE7681C08B90120DAE720688069AA
:1027B000A84246D8B8F1000F01D10420D1E7E16862
:1027C0002068FFF70FFF05460DB90720C9E7012D67
:1027D00001D10220C5E7681C08B90120C1E700212A
:1027E0002068FFF713FD08B10120BAE7216801F165
:1027F00030004FF400720021FFF7E1FC2946206809
:10280000FFF7A2FD2168C862002710E001202168BF
:10281000087100212068FFF7F9FC08B10120A0E74A
:102820002068C06A401C2168C862781CC7B2206852
:102830008078B842EADC2068C06AC01B2168C862A0
:1028400000BFE56029462068FFF77EFD2061E68035
:102850002068303006F00F0100EB4110606100206D
:102860007FE710B502468C7ECB7E44EA03201378C6
:10287000032B05D10C7D4B7D44EA032340EA034042
:1028800010BD81760B0AC3760A0C02750B0E4375D8
:1028900070472DE9F041044600212046FFF707FF6D
:1028A000054615B12846BDE8F08100BF21692068C2
:1028B000FFF7ACFC054605B116E0666937780FB93D
:1028C000042511E0F07A00F0080030B90B22304600
:1028D000A169FFF77EFC00B906E000212046FFF762
:1028E00034FF0546002DE1D000BF2846DBE72DE987
:1028F000F041044604251BE021692068FFF786FCAF
:10290000054605B117E067693E780EB9042512E067
:10291000E52E06D02E2E04D0F87A00F0080000B97B
:1029200009E000212046FFF710FF054605B102E04F
:1029300020690028E0D100BF0DB1002020612846A9
:10294000BDE8F0812DE9F041044600212046FFF763
:10295000AEFE0546ADB900BF21692068FFF756FC01
:10296000054605B10CE060690678E52E00D006B991
:1029700006E001212046FFF7E8FE0546002DEBD0DA
:1029800000BF9DB921692068FFF740FC05466DB97D
:102990006769202200213846FFF711FC0B223846D8
:1029A000A169FFF7FFFB0120216808712846BDE8F7
:1029B000F08170B50446E1882046FFF778FE0546B1
:1029C0005DB921692068FFF721FC05462DB9E52096
:1029D00061690870012021680871284670BD2DE9E1
:1029E000F35F8A46DAF8007000E07F1C38782F2801
:1029F000FBD038785C28F8D0009886690B2220211B
:102A00003046FFF7DCFB0025A946AB464FF008082F
:102A100000BF58460BF1010B3C5C202C03DD2F2C32
:102A200001D05C2C00D134E02E2C01D0C1450ED356
:102A3000B8F1080F01D12E2C02D00620BDE8FC9F72
:102A40004FF008094FF00B08A806050EE1E7802CAF
:102A500003DB45F003050620F0E72146FEA0FFF763
:102A6000CBFB08B10620E9E7412C04DB5A2C02DC41
:102A700045F0020508E0612C06DB7A2C04DC45F009
:102A80000105A4F12000C4B2484609F101093454FB
:102A9000BFE700BF07EB0B00CAF80000202C01DCE9
:102AA000042000E000200446B9F1000F01D1062007
:102AB000C4E73078E52801D105203070B8F1080F5F
:102AC00001D1A806050E05F00300012801D144F04C
:102AD000100405F00C00042801D144F00804F4723D
:102AE0000020ABE7F0B505460B4603F109022F695C
:102AF000002F40D06869067B00210AE0445C202C4E
:102B000000D108E0052C00D1E52400BF02F8014BFC
:102B1000491C0829F2D300BF077A202F0FD02E2797
:102B200002F8017B082107E0445C202C00D105E07D
:102B300000BF02F8014B491C0B29F5D300BFC77A2F
:102B40001F72C77F4FEA076C877F4CEA074C477FAD
:102B50004CEA072790F81CC047EA0C071F6090F862
:102B600018C0477E4CEA07279F8090F816C0C77DA3
:102B70004CEA0727DF8000271770F0BD2DE9F341ED
:102B80000446019800782F2803D0019800785C282B
:102B900002D10198401C01900020A06001980078AB
:102BA000202807D200212046FFF781FD054600209E
:102BB000606129E000BF01A92046FFF710FF05462C
:102BC00005B120E02046FFF764FE0546A069C67AFD
:102BD00045B1042D00D016E000BF06F0040000B996
:102BE000052510E006F0040000B10CE06769F87AF2
:102BF00000F0100008B9052505E039462068FFF708
:102C000030FEA060D7E700BF2846BDE8FC8170B564
:102C100004460D46607801232A4604F13001FFF78F
:102C20009BFA08B1032070BD94F82E1294F82F027D
:102C300041EA00204AF65521884201D00220F2E7FD
:102C400094F86900010694F8680041EA004194F89C
:102C5000670041EA002094F86610084320F07F40A6
:102C60008149884201D10020DDE794F88500010602
:102C700094F8840041EA004194F8830041EA00207E
:102C800094F88210084320F07F407749884201D1B0
:102C90000020C8E70120C6E72DE9F74F88B0089863
:102CA000006801900198007830380790079809284B
:102CB0000AD8019840783A2806D10198801C0190E2
:102CC00008990198086001E0002007900021099808
:102CD0000160079818B10B200BB0BDE8F08F634975
:102CE000079851F820400CB90C20F5E709980460CA
:102CF000207878B16078FFF72CFA804608F0010060
:102D000040B90A9820B108F0040008B10A20E3E7AE
:102D10000020E1E700202070079860706078FFF7DE
:102D200015FA804608F0010008B10320D4E70A989C
:102D300020B108F0040008B10A20CDE74FF0000BE5
:102D400059462046FFF763FF054600BF012D21D1FC
:102D50004FF0000ABAF1000F03D0AAF1010000F011
:102D6000FF0A4FF4DF7000EB0A1104F130000F1876
:102D7000387978B1F87A0106B87A41EA0041787A70
:102D800041EA0020397A40EA010B59462046FFF714
:102D90003EFF0546032D01D101209DE70DB10D2019
:102DA0009AE73B20015D94F83C0041EA0020B0F531
:102DB000007F01D00D208FE74620015D94F8470089
:102DC00041EA0029B9F1000F0ED194F8570001062D
:102DD00094F8560041EA004194F8550041EA002079
:102DE00094F8541040EA0109C4F81C904020065D94
:102DF000E670012E03D0022E01D00D206CE709FBF6
:102E000006F93D20005D0646A07016B1701E3040E8
:102E100008B10D2060E74120015D94F8420041EACD
:102E200000202081207A00F00F0008B10D2053E728
:102E30004320015D94F8440041EA00200690069882
:102E4000E0B994F85300010694F8520041EA0041B9
:102E500094F851000CE00000222A2B2C3A3B3C3D18
:102E60003E3F5B5D7C7F00004641540064000020D3
:102E700041EA002094F85010084306903E20015D7E
:102E800094F83F0041EA00200290029808B90D2012
:102E900022E702984844218900EB11100590DDE9F2
:102EA0000501814201D20D2016E7DDE90510401A27
:102EB000A178B0FBF1F00490049808B90D200BE75D
:102EC000012540F6F6710498884200D302254FF69A
:102ED000F6710498884200D303250498801CA061F1
:102EE00005985844A062029858442062032D16D1D8
:102EF000208908B10D20EFE694F85F00010694F8F0
:102F00005E0041EA004194F85D0041EA002094F837
:102F10005C1008436062A0698000039014E020897F
:102F200008B90D20D8E6206A48446062022D02D11B
:102F3000A069400007E0207E00F00100A16901EBDC
:102F4000410100EB51000390E169039800F2FF108A
:102F5000B1EB502F01D20D20BEE64FF0FF302061C3
:102F60000020E060032D5CD1607194F8601094F84B
:102F7000610041EA0020584460616078012304F157
:102F800030016269FFF7E8F8F0BB94F82E1294F86C
:102F90002F0241EA00204AF65521884241D13320D0
:102FA000005D01063220005D41EA00413120005DF4
:102FB00041EA002094F830100843FE49884230D19D
:102FC00094F81702010694F8160241EA004194F8B9
:102FD000150241EA002094F814120843F649884289
:102FE0001FD194F81F02010694F81E0241EA004125
:102FF00094F81D0241EA002094F81C120843E06096
:1030000094F81B02010600E00BE094F81A0241EA72
:10301000004194F8190241EA002094F8181208437C
:1030200020612570E5480088401C80B2E349088093
:10303000E0800020E062207100BF4DE670B50546DB
:103040002C46206838B12068007820B12068C088FC
:10305000A188884201D0092070BD21684878FFF717
:1030600078F800F0010008B10320F5E70020F3E74D
:103070000246012A01DB0B207047D14850F822306C
:103080000BB10020187009B100200870CC4840F83E
:1030900022100020F0E72DE9F7438AB005461646D6
:1030A0001DB909200DB0BDE8F0830020286006F0AE
:1030B0001F0626F0010203A90BA8FFF7EDFD074646
:1030C000002F7DD1CDF824D003A80B99FFF756FD32
:1030D0000746089C0FB904B9062706F01C00002813
:1030E00051D04FB1042F03D103A8FFF72BFC0746A3
:1030F00046F00806089C09E0E07A00F0110008B1EB
:10310000072703E006F0040000B10827002F39D19B
:1031100006F00800002835D0FFF741F8804684F813
:103120000E804FEA1821E1734FEA184121744FEAEB
:10313000186161740020E072207700216177A17727
:10314000E17721460398FFF78CFB8146002120465A
:10315000FFF797FB012003990871B9F1000F11D017
:103160000398D0F82C8049460398FFF707FA0746E2
:1031700047B9A9F101000399C86041460398FFF7D8
:1031800045F807460EE06FB9E07A00F0100008B18C
:10319000042707E006F0020020B1E07A00F0010009
:1031A00000B1072747B906F0080008B146F020062D
:1031B0000398C06AE8612C6217B9AE71214600E03D
:1031C00016E00398FFF74DFB2861E07F0106A07F22
:1031D00041EA0041607F41EA0020217F0843E86026
:1031E0000020A860A861039828600398C088A88080
:1031F000384657E72DE9FF4F83B0044615469A46F7
:10320000DDF810B00020CAF800002046FFF716FFD6
:103210000290029818B1029807B0BDE8F08FA0792B
:1032200000F0800008B10220F6E7A07900F001006C
:1032300008B90720F0E7D4E90210401A009000987E
:10324000854200D9009DBEE02089C0F30800002817
:103250007ED120688078401EA16800EA512000F0ED
:10326000FF09B9F1000F1DD1A06810B920690190C4
:1032700004E061692068FFF774F801900198022862
:1032800005D2A07940F08000A0710220C4E7019827
:10329000401C28B9A07940F08000A0710120BBE754
:1032A0000198606161692068FFF74EF806462EB903
:1032B000A07940F08000A0710220ADE74E444FEAB3
:1032C0005528B8F1000F2DD009EB08002168897846
:1032D000884203D920688078A0EB090808F0FF0332
:1032E0002168487832465946FEF736FF28B1A07962
:1032F00040F08000A07101208EE7A07900F040002E
:1033000068B1A069801B404509D2A169891B0BEBFC
:1033100041204FF4007204F12401FEF743FF4FEA0D
:1033200048273DE0A069B04226D0A07900F04000D7
:1033300098B121684878012304F12401A269FEF7BD
:103340001BFF30B1A07940F08000A071012063E73D
:1033500013E0A07920F04000A07121684878012393
:10336000324604F12401FEF7F7FE28B1A07940F0BF
:103370008000A07101204FE7A6612089C0F30800FA
:10338000C0F50077AF4200D92F462089C0F308026C
:1033900004F1240011183A465846FEF703FF00BF17
:1033A000BB44A0683844A060DAF800003844CAF88A
:1033B000000007E0525261417272416168000020D2
:1033C00064000020ED1B002D7FF43EAF002023E7BA
:1033D0002DE9FF4F83B0044615469B4604980190A3
:1033E0000020CBF800002046FFF728FE029002984C
:1033F00018B1029807B0BDE8F08FA07900F0800006
:1034000008B10220F6E7A07900F0020008B9072011
:10341000F0E7E0682844E168884200D20025CDE06A
:103420002089C0F30800002877D120688078401EEA
:10343000A16800EA512000F0FF0ABAF1000F2AD17A
:10344000A06858B9D4F81080B8F1000F0BD1002152
:103450002068FFF7C7F88046206104E061692068B2
:10346000FFF7C0F88046B8F1000F00D1A9E0B8F12D
:10347000010F05D1A07940F08000A0710220B9E7CA
:1034800008F1010028B9A07940F08000A071012066
:10349000B0E7C4F81480A07900F0400090B1216832
:1034A0004878012304F12401A269FEF765FE28B1E2
:1034B000A07940F08000A07101209BE7A07920F066
:1034C0004000A07161692068FEF73EFF06462EB9F4
:1034D000A07940F08000A07102208BE756444FEAAB
:1034E0005529B9F1000F2FD00AEB0900216889781E
:1034F000884203D920688078A0EB0A0909F0FF030D
:103500002168487832460199FEF736FE30B1A0793D
:1035100040F08000A07101206CE72CE0A069801BC6
:1035200048450ED2A069801B019A02EB40214FF45E
:10353000007204F12400FEF735FEA07920F040006F
:10354000A0714FEA49272DE0A069B04212D0D4E91A
:10355000020188420ED2216848780123324604F1E4
:103560002401FEF7F9FD28B1A07940F08000A07198
:1035700001203FE7A6612089C0F30800C0F500776D
:10358000AF4200D92F462189C1F3080204F124017A
:1035900050183A460199FEF705FEA07940F0400028
:1035A000A07100BF019838440190A0683844A06021
:1035B000DBF800003844CBF80000ED1B002D7FF451
:1035C0002FAF00BFD4E90201884201D9A068E060B2
:1035D000A07940F02000A07100200BE72DE9F04118
:1035E00004462046FFF72AFD0746002F4CD1A0795C
:1035F00000F02000002847D0A07900F0400078B10A
:1036000021684878012304F12401A269FEF7B4FD82
:1036100010B10120BDE8F081A07920F04000A07138
:10362000E1692068FEF7F2FD0746002F2CD1256ADC
:10363000E87A40F02000E872207B2877A089010A10
:103640006977E068010CA977E068010EE977284600
:103650002169FFF716F9FEF7A2FD0646AE75310A9D
:10366000E975310C2976310E69760020A8740021A5
:10367000E974A07920F02000A07101202168087170
:103680002068FEF7FCFD07463846C3E770B50446E0
:103690002046FFF7A3FF05460DB90020206028460D
:1036A00070BD2DE9F04704460E462046FFF7C6FCE4
:1036B0008246BAF1000F02D05046BDE8F087A079EB
:1036C00000F0800008B10220F7E7E068B04204D2C1
:1036D000A07900F0020000B9E668D4F808904FF035
:1036E0000008C4F80880002E77D020688078470250
:1036F000B9F1000F11D0701EB0FBF7F1A9F1010074
:10370000B0FBF7F0814208D3A9F10100791E88438C
:10371000A060A068361A656918E02569ADB9002176
:103720002068FEF75FFF0546012D05D1A07940F026
:103730008000A0710220C0E7681C28B9A07940F081
:103740008000A0710120B8E725616561002D44D09B
:1037500029E0A07900F0020038B129462068FEF780
:1037600041FF054635B93E461FE029462068FEF771
:10377000F8FD0546681C28B9A07940F08000A071CA
:1037800001209AE7012D03D920688069A84205D855
:10379000A07940F08000A07102208EE76561A068EA
:1037A0003844A060F61BBE42D3D800BFA0683044A6
:1037B000A060C6F3080068B129462068FEF7C4FD82
:1037C0008046B8F1000F06D1A07940F08000A071CA
:1037D000022072E701E008EB56282089C0F30800B8
:1037E00050B3A069404527D0A07900F0400090B1C7
:1037F00021684878012304F12401A269FEF7BCFC8A
:1038000028B1A07940F08000A071012055E7A0798F
:1038100020F04000A071216848780123424604F15D
:103820002401FEF799FC28B1A07940F08000A07136
:10383000012042E7C4F81880D4E90201884205D982
:10384000A068E060A07940F02000A071504634E705
:1038500073B584B0044614B9092006B070BD0022C7
:10386000214605A8FFF718FA0546266825BB01A8DA
:10387000A06120460599FFF781F90546ADB9606959
:1038800058B16069C07A00F0100028B13046616913
:10389000FEF7E7FFA06000E0052535B9F088A080BD
:1038A00000212046FEF703FF0546042D00D1052523
:1038B00025B10020206001E0002020602846CCE7F0
:1038C000FEB505460E462846FFF7B8FB044604BB86
:1038D0002EB900212846FEF7EAFE044619E0C5F895
:1038E00018D02846FFF703F80446042C02D1002024
:1038F000286100246CB931462846FFF7F3F800210F
:103900002846FEF722FF0446042C02D1002028613D
:1039100000242046FEBD33B58BB00D46002204A91D
:103920000BA8FFF7B9F904467CB901A80A9004A8CE
:103930000B99FFF723F904463CB9099820B12946B1
:1039400004A8FFF7CFF800E0062420460DB030BDF4
:103950002DE9F74F82B08B46002202A80499FFF7A9
:103960009BF9019004980468019800286ED1A06921
:10397000801E2169814203D82069CBF8000065E0F0
:1039800094F800A00026BAF1010F1CD1022700BF55
:1039900039462046FEF7E5FC804608F1010010B9E3
:1039A000012001900EE0B8F1010F02D10220019038
:1039B00008E0B8F1000F00D1761C781C0746A16919
:1039C0008842E5D33AE0A769206A00904FF00009E9
:1039D000002500BFB9F1000F0ED10098421C01462E
:1039E00020460092FEF712FC0190019800B124E0FD
:1039F00004F130054FF40079BAF1020F09D12878AB
:103A0000697840EA012000B9761CAD1CA9F10209D1
:103A100010E0E8780006A97840EA0140697840EAB9
:103A200001202978084320F0704000B9761C2D1D34
:103A3000A9F10409781E0700CCD100BF2661BAF1B4
:103A4000030F01D101206071CBF80060019805B02F
:103A5000BDE8F08F70B504460CB9092070BD204652
:103A6000FFF7ECFA054655B9A07900F0800008B1DF
:103A7000022504E0A07900F0020000B90725002D1E
:103A800036D1D4E9021088422DD9A068E060A0792F
:103A900040F02000A071A06838B921692068FEF7C5
:103AA0006DFD0546002020611DE061692068FEF77C
:103AB00058FC06460025701C00B90125012E00D1D6
:103AC000022585B920688069B0420CD96FF0704238
:103AD00061692068FEF7B7FC054625B931462068C4
:103AE000FEF74CFD05461DB1A07940F08000A071A5
:103AF0002846B3E771B591B001220AA911A8FFF7D2
:103B0000CBF80446002C46D1CDF840D00AA8119934
:103B1000FFF734F8044600BF002C3CD10F9E0EB9CD
:103B2000062404E0F07A00F0010000B107243146D9
:103B30000A98FEF796FE0546E4B9F07A00F0100008
:103B4000C0B1022D01D2022414E01C220AA903A84C
:103B5000FEF728FB0595022103A8FEF7A8FD044601
:103B600044B903A8FEF7C3FE044604B90724042C95
:103B700000D100247CB90AA8FEF71BFF044654B903
:103B800025B129460A98FEF7F9FC04461CB90A98A3
:103B9000FEF775FB0446204612B070BD2DE9F147D3
:103BA0008BB0FEF7FCFA0646012204A90BA8FFF72A
:103BB00073F80546002D6FD101A80A9004A80B994F
:103BC000FEF7DCFF054605B9082500BF042DF2D13C
:103BD00000210498FEF706FD0746002507B90725D2
:103BE000012F00D10225781C00B9012525B900213B
:103BF0000498FEF70BFB0546002D5CD1394604986E
:103C0000FEF7A2FB8146049800F130044FF40072E5
:103C100000212046FEF7D3FA0B2220212046FEF792
:103C2000CEFA2E2020701020E072A675310AE175C0
:103C3000310C2176310E617639462046FEF721FEA1
:103C40002022214604F12000FEF7ACFA2E2084F851
:103C50002100DDF818A004980078032804D1049806
:103C6000406A504500D1AA46514604F12000FEF7B3
:103C700008FE049890F8028019E00498C0F82C908F
:103C800009F1010901200499087100210498FEF747
:103C9000BDFA05460DB10DE02DE04FF40072002194
:103CA0002046FEF78CFAA8F1010000F0FF08B8F1F9
:103CB000000FE2D100BF1DB904A8FEF743FE054680
:103CC00025B139460498FEF759FC14E0099C1020F0
:103CD000E072A675310AE175310C2176310E6176FC
:103CE00039462046FEF7CDFD01200499087104985D
:103CF000FEF7C5FA054628460CB0BDE8F087F7B5D3
:103D00008AB00F461446012203A90AA8FEF7C4FF91
:103D10000646DEB9CDF824D003A80A99FEF72EFF97
:103D2000064600BF96B9089D0DB906260EE004F0C0
:103D3000270407EA0400E97AA1430843E872012056
:103D4000039908710398FEF79AFA064630460DB0BB
:103D5000F0BD73B58AB00D46012203A90AA8FEF78B
:103D60009BFF0646EEB9CDF824D003A80A99FEF7CA
:103D700005FF064600BFA6B9089C0CB9062610E050
:103D8000A879A075E8880112E17528792076A888BD
:103D9000011261760120039908710398FEF76FFA0A
:103DA000064630460CB070BD2DE9F34198B00F4681
:103DB000012211A918A8FEF76FFF0446002C79D143
:103DC00011980A9001A8179011A81899FEF7D6FE2D
:103DD000044600BF002C6DD1169808B9042469E090
:103DE000169800F10B01152204A8FEF7DBF91C223E
:103DF00011A90AA8FEF7D6F939460AA8FEF7BEFEB1
:103E0000044604B90824042C54D10AA8FEF79AFDEC
:103E10000446002C4ED10F9D13220DF1120105F125
:103E20000D00FEF7BFF99DF8100040F02000E87289
:103E30000120119908710C991398884230D0E87AC2
:103E400000F0100060B329461198FEF70AFD804685
:103E500041461198FEF778FA06460EB902241FE093
:103E600031461198FEF7D2F90446119800F1500539
:103E7000B4B968782E2813D111980078032806D198
:103E800011990C98496A884201D1002000E00C98F1
:103E9000064631462846FEF7F4FC012011990871C8
:103EA00044B911A8FEF785FD04461CB91198FEF728
:103EB000E6F9044620461AB0BDE8F081024600202B
:103EC000CB1C23F00301136F8B4205D3136F5B1AD6
:103ED0001367D06E4318D36670472DE9F0478246CA
:103EE0000C4616462BE0412E02D20620BDE8F08794
:103EF000413E14F8018B08F0F00008B10620F5E708
:103F000008F003074FF480715046FFF7D7FF0546CE
:103F10000DB90320EAE70AF1540040F827500027C2
:103F20000BE0FD4810F8079014F8010BFB4931F83D
:103F30001910484345F829007F1C402FF1D3002E6B
:103F4000D1D10020D2E72DE9F74F86B00D461646B5
:103F50008EE0112E03D2062009B0BDE8F08F113E8D
:103F600015F801AB4FEA2A190AF00F0003900AF086
:103F7000EE0008B10620EFE710210698FFF79EFF3C
:103F80008046B8F1000F01D10320E5E70698243000
:103F9000039900EBC10040F8298000200446074641
:103FA00007E015F8010B049008F804000498074492
:103FB000641C102CF5D379000698FFF77FFF834629
:103FC000BBF1000F01D10320C6E7069834300399F6
:103FD00000EBC10040F829B0002001900446059094
:103FE00019E018F80400049009E00598421C0199B2
:103FF00005922BF810100198401C80B20190049893
:10400000411E04910028F0D14FF6FF71019801EA9A
:1040100040000190641C102CE3D3BE4201D2062064
:104020009AE7F61B39460698FFF748FF0290029878
:1040300008B9032090E706984430DDE9021200EB4E
:10404000C20040F82910002410E015F801ABB9F1C6
:10405000000F04D1BAF10B0F01DD06207CE70298B6
:1040600080F800A00298401C0290641CBC42ECD373
:10407000002E7FF46EAF00206EE72DE9F05F04465E
:104080008846267B2768656895F800A0002083464F
:10409000814600BF36BB67B9A5684FF40072294658
:1040A0002046636F9847074627B96FF00100BDE8C7
:1040B000F09F6D1C7F1EBBF1000F0AD04FF0000B6C
:1040C000287810B16FF00500F1E7FF2082462870D4
:1040D00007E095F800A0BAF1FF0F02D14FF0010BF5
:1040E0000BE080264FEA49090AEA060008B109F107
:1040F00001097610A8F1010800BFB8F1000FC9D17D
:104100002673276065604846D1E72DE9FF5F0446C6
:10411000884691469A46267B2768656828780390EA
:104120000020834602901020019000BF36BB6FB97B
:10413000A5684FF4007229462046636F98470746EA
:104140002FB96FF0010004B0BDE8F09F6D1C7F1E19
:10415000029850B100200290287810B16FF005004D
:10416000F1E7FF200390287007E028780390039878
:10417000FF2802D10120029022E080264FEA4B0B5B
:104180000398304008B10BF1010B761018F8010BC1
:1041900000900EE039F8021B594505D126732760BF
:1041A00065609AF80000CEE70AF1010A0098401E07
:1041B000009000980028EDD10198401E019000BFAA
:1041C00001980028B2D1801FBDE72DE9F04F87B0DC
:1041D0000C464FF4B55BCDF818B041F2511BCDF849
:1041E00014B042F6CF1BCDF810B041F6905BCDF87D
:1041F0000CB04FF0000BCDF800B080E0D0F800C05C
:10420000D0F84080D0F88090D0F8C0100CEB090AAC
:10421000ACEB090BCDF808B0A8EB010B4FF4B55E81
:104220000BFB0EFB4FEA2B3741447F1A0AEB010CC4
:10423000AAEB0101DDF808B007EB0B08DDF808B0C8
:10424000ABEB0709D0F8E050036AD0F8A060026E2B
:10425000A3EB050A5F19A6EB020BCDF808B03244B8
:10426000A7EB020B0BFB0EFB4FEA2B333A44DDF8B6
:1042700008B0D34441F6905E0BFB0EFB4FEA2B3B9C
:10428000CDF804B041F2511B0AFB0BFEDDF804B07F
:10429000ABEB2E3542F6CF1EDDF808B00BFB0EFE61
:1042A000DDF804B0ABEB2E3BABEB02069B1BED1A2B
:1042B0000CEB020BC0F800B0ACEB020BC0F8E0B0A6
:1042C00008EB060BC0F820B0A8EB060BC0F8C0B096
:1042D00009EB030BC0F840B0A9EB030BC0F8A0B08A
:1042E00001EB050BC0F860B0A1EB050BC0F880B086
:1042F000001DDDF800B00BF1010BCDF800B0DDF8CA
:1043000000B0BBF1080FFFF479AF20384FF0000B7D
:10431000CDF800B0A7E000009A9E0008DA9E0008E1
:10432000D0F800B00BF5004CD0F80880D0F8109011
:1043300081690CEB090AACEB090BCDF808B0A8EBCE
:10434000010B4FF4B55E0BFB0EFB4FEA2B374144DC
:104350007F1A0AEB010CAAEB0101DDF808B007EBAC
:104360000B08DDF808B0ABEB0709C569436846697F
:10437000C268A3EB050A5F19A6EB020BCDF808B0E3
:104380003244A7EB020B0BFB0EFB4FEA2B333A44F4
:10439000DDF808B0D34441F6905E0BFB0EFB4FEA0C
:1043A0002B3BCDF804B041F2511B0AFB0BFEDDF8AC
:1043B00004B0ABEB2E3542F6CF1EDDF808B00BFB98
:1043C0000EFEDDF804B0ABEB2E3BABEB02069B1B05
:1043D000ED1A0CEB020BCBF3092BDFF808E61EF805
:1043E0000BB084F800B0ACEB020BCBF3092B1EF83A
:1043F0000BB084F807B008EB060BCBF3092B1EF8C3
:104400000BB084F801B0A8EB060BCBF3092B1EF818
:104410000BB084F806B009EB030BCBF3092B1EF8A5
:104420000BB084F802B0A9EB030BCBF3092B1EF8F9
:104430000BB084F805B001EB050BCBF3092B1EF88C
:104440000BB084F803B0A1EB050BCBF3092B1EF8DE
:104450000BB084F804B008342030DDF800B00BF164
:10446000010BCDF800B0DDF800B0BBF1080FFFF490
:1044700057AF07B0BDE8F08F2DE9F04F89B0044683
:10448000D4F86490A07BE17B484308900220079019
:10449000A06E04904FF0000BD4E00898834501D241
:1044A000002003E00898ABEB0000401C0590059845
:1044B00008B1012000E00020804604F1240050F8FB
:1044C0003800039004F1340050F83800019004F1F2
:1044D000440050F8380002902046DDE9012303999A
:1044E000FFF713FE0546002D04DA6842C0B209B09A
:1044F000BDE8F08F04F11400059930F91160F5B1B1
:1045000029462046FFF7B9FD8246BAF1000F03DACB
:10451000CAF10000C0B2EAE7681E012101FA00F505
:104520000AEA050020B90120C0EB4500AAEB000A09
:10453000564432B204F11400059920F8112004F118
:1045400010000599415C443050F82100009000981B
:10455000006870430012C9F80000012703E0002042
:1045600049F827007F1C402FF9D304F1240000EB09
:10457000C8004068039004F1340000EBC8004068B4
:10458000019004F1440000EBC8004068029001274C
:1045900000BF2046DDE901230399FFF7B6FD05467C
:1045A00005B937E0002D02DA6842C0B29FE728095A
:1045B0000690069828B106980744402F01D306209C
:1045C00095E705F00F00050020D029462046FFF7AB
:1045D00054FD0646002E02DA7042C0B287E7681E1C
:1045E000012101FA00F506EA050018B90120C0EB27
:1045F0004500361AFC48C05D06900699009850F8B0
:10460000210070430112069849F82010781C0746D3
:104610004028BED300BF607B03280AD1D9F8000030
:10462000C11700EB116109128031CAB204990A70F6
:1046300003E048460499FFF7C8FD04984030049011
:104640000BF1010BDDE90710084458453FF625AF93
:1046500000204CE72DE9FF4F8DB004464FF48060F9
:104660000C90A07BC700E07BC0000B900F983844F3
:10467000E169884201D8384602E0E1690F98081ADA
:1046800083460B9910980844216A884201D80B98F8
:1046900002E0216A1098081A0A90607B2BFA00FB4E
:1046A000617B0A98C8400A90BBF1000F01D00A98BC
:1046B00018B9002011B0BDE8F08F617B0F98C84099
:1046C0000F90617B1098C84010900F9880B2ADF8A1
:1046D00014000F985844401E80B2ADF81600109890
:1046E00080B2ADF818000A9910980844401E80B2B4
:1046F000ADF81A00607B03287DD0656E00266EE061
:10470000D4F8688008EBC60007900B9810280BD1EE
:1047100070084FF4807101EBC0008044082E07D36D
:1047200007984030079003E0F80000EBC600804493
:104730004FF0000950E098F800008038099098F890
:10474000400080380890102F09D1B9F1080F02D12C
:1047500007983830079009F00100804401E008F123
:104760000108079810F801AB079040F29B52089996
:1047700001FB02F0C11700EB91510AEBA121C1F33B
:104780000901984A515C05F8011B4FF4B072099970
:10479000514340F2DB23089A03FB0210C11700EBE0
:1047A0009151AAEBA121C1F309018E4A515C05F890
:1047B000011B40F21672099901FB02F0C11700EBD0
:1047C00091510AEBA121C1F30901864A515C29707C
:1047D000691C0D4609F10109B945ACD3761C0B984B
:1047E00086428DD3607B002853D0637B5A0094F8B7
:1047F0000DE0012300E04DE003FA0EF17B1A03EB1C
:1048000043030093606E002640E04FF000093AE059
:1048100006FB079E0EEB4E0E636E03EB0E050023A8
:1048200001930293039304931DE04FF0000C13E0F7
:1048300015F8013BDDF80CE07344039315F8013BD8
:10484000DDF808E07344029315F8013BDDF804E05D
:10485000734401930CF1010C8C45E9D3009B1D447A
:10486000049B5B1C0493049B8B42DED3039BD340CD
:1048700000F8013B029BD34000F8013B019BD34071
:1048800000F8013B8944B945C2D30E440B9B9E42BC
:10489000BBD35BE0656EA16E0B9807FB001898F820
:1048A00000008038099098F8400080380890002671
:1048B00049E0A06E0790082E02D10798803007903B
:1048C0004FF000093CE0079890F800A007984030AE
:1048D000079040F29B52089901FB02F0C11700EBD0
:1048E00091510AEBA121C1F309013E4A515C05F83F
:1048F000011B4FF4B0720999514340F2DB23089A2F
:1049000003FB0210C11700EB9151AAEBA121C1F3E7
:104910000901344A515C05F8011B40F216720999ED
:1049200001FB02F0C11700EB91510AEBA121C1F389
:1049300009012C4A515C2970691C0D4609F10809CE
:10494000B945C0D308360B988642B2D3607BC740C6
:10495000BB4521D2D4F864C061466046002316E00E
:1049600000220CE010F801CB01F801CB10F801CBCC
:1049700001F801CB10F801CB01F801CB521C5A45CC
:10498000F0D3A7EB0B0C0CEB4C0C60445B1CDDF87C
:1049900028C06345E4D300BF606E0246DDF828C03E
:1049A0000BFB0CF300BF10F801CB0CF0F80C4FEA36
:1049B0000C2110F801CB0CF0FC0C41EACC0110F8F2
:1049C00001CB41EAEC0122F8021BA3F1010C5FEAE2
:1049D0000C03E8D105AA2046616E0E9B984728B9C2
:1049E000012067E65A9F00089A9E0008002061E6B1
:1049F0002DE9F04704468846666825680027B946D1
:104A000014E05DB9A6684FF4007231462046636F2A
:104A1000984705461DB90220BDE8F087761C6D1E3B
:104A2000307840EA072087B209F10109B9F1020F95
:104A3000E7D366602560002020734FF6D8703840B9
:104A40004FF6D071884203D17807B0EB487F01D090
:104A50000620E1E70021A182E18221830020DBE73B
:104A60002DE9FF4F83B00446059818B9052007B01B
:104A7000BDE8F08F0598E0660698206704986067A7
:104A80001098A0670020608300261BE04FF0000A0A
:104A900014E0002104F1240000EBC60040F82A10C5
:104AA00004F1340000EBC60040F82A1004F1440081
:104AB00000EBC60040F82A100AF1010ABAF1020F11
:104AC000E7D3761C022EE1D3002605E0002104F195
:104AD000540040F82610761C042EF7D34FF40071D2
:104AE0002046FFF7EBF90546A0600DB90320BEE7AD
:104AF000022229462046636F9847022801D00220EF
:104B0000B5E76878297840EA01204FF6D8718842E5
:104B100001D00620ABE74FF0020900BF042229466E
:104B20002046636F9847042801D002209FE76878E9
:104B3000297840EA01200290E878A97840EA012724
:104B4000022F04D9FF210298B1EB202F01D00620BB
:104B50008DE7BF1E381D81440298C0B2C0381E28A0
:104B600072D2DFE800F00FF4F3F272F1F0EF71EEC1
:104B7000EDEC71EBEAE9717171717171717171E84C
:104B8000A68C715DB7F5007F01D904206FE73A4626
:104B900029462046636F9847B84201D0022066E755
:104BA0002879E97840EA0120E061A878697840EA4C
:104BB000012020626879032801D0082057E70026E9
:104BC0002BE006EB4600C01D15F800808EB9B8F149
:104BD000110F07D0B8F1220F04D0B8F1210F01D086
:104BE000082044E74FEA2810A07308F00F00E07394
:104BF00004E0B8F1110F01D0082038E706EB4600B9
:104C0000083015F80080B8F1030F01DD08202EE709
:104C100004F1100000F80680761C032ED1D3ECE0DE
:104C2000B7F5007F01D9042021E73A4629462046FE
:104C3000636F9847B84201D0022018E76878297856
:104C400040EA01206083D8E0CDE0B7F5007F01D9CC
:104C500004200CE73A4629462046636F9847B8423D
:104C600001D0022003E73A4629462046FFF76BF9B8
:104C7000C0B20190019808B10198F8E6BDE0B7F51F
:104C8000007F01D90420F2E63A4629462046636FA8
:104C90009847B84201D00220E9E63A462946204624
:104CA000FFF71BF9C0B20190019808B10198DEE648
:104CB000A3E0B7F5007F01D90420D8E63A4629469B
:104CC0002046636F9847B84201D00220CFE6E069E2
:104CD00008B1206A08B90620C9E62878032801D05F
:104CE0000820C4E6002634E07000801C15F800801F
:104CF000B8F1000F04D0B8F1110F01D00820B6E6CA
:104D00000EB1012000E00020804604F1240050F89C
:104D1000380028B104F1240000EBC800406808B94D
:104D20000620A4E604F11000815D443050F8210013
:104D300070B906209BE654E052E050E04EE04CE0B3
:104D40004AE048E046E044E042E040E03EE03CE04B
:104D5000761C032EC8D3E07BA17B00FB01FBBBF1DB
:104D6000000F01D1062082E6402101EBCB17FF2F77
:104D700000D88F0039462046FFF7A0F86066606EC5
:104D800008B9032073E60BF1020081012046FFF70A
:104D900095F8A066A06E08B9032068E6656000205B
:104DA00020602073C9F308005FEA00090BD0C9F541
:104DB000007205EB09012046636F9847206005EB00
:104DC0000900401E6060002051E600BF00BF00BF28
:104DD00000BF00BF00BF00BF00BF00BF00BF00BFDB
:104DE00000BF082043E63A4600212046636F9847FB
:104DF000B84201D002203AE600BF8FE62DE9F74F16
:104E000082B004461746032F03DD052005B0BDE838
:104E1000F08F6773A07B4FEAC009E07B4FEAC00ABE
:104E20000021A182E18221838B46CDF804B00025C8
:104E300000262FE04FF0000828E0608BA0B1584614
:104E4000411C1FFA81FB618B88420DD10198421CE5
:104E500092B2014620460192FFF7CAFD05460DB108
:104E60002846D3E74FF0010B2046FFF705FB054628
:104E70000DB12846CAE73346424620460399FFF75C
:104E8000E9FB05460DB12846C0E7C844E069404546
:104E9000D3D85644206AB042CCD82846B6E70000A2
:104EA00008B5002002F0ABFA002002F0ABFA02F0E5
:104EB0007BFA00214FF4806003F02DFB4FF4F85093
:104EC000ADF8000004208DF803006946FE4803F0A9
:104ED00073F80420ADF800006946FC4803F06CF854
:104EE00008BD08B50121B02003F022FB4FF4F850B3
:104EF000ADF8000003208DF8020018208DF80300A3
:104F00006946F14803F058F80420ADF800006946FE
:104F1000EE4803F051F84FF40060ADF8000048206F
:104F20008DF803006946EA4803F046F8012188023B
:104F300003F0F1FA0121022003F0EDFA08BD30B5CB
:104F40008BB005460C46E34802F000FA0021E24827
:104F500002F0CDF9E1480090019510200290A008E0
:104F6000039000200490802005908000069080002F
:104F70000790002008904FF40050099000200A90FC
:104F80006946D54802F088F90121D34802F0AFF90B
:104F90000BB030BD30B58BB005460C46CD4802F0A5
:104FA000D5F90021CC4802F0A2F9CC480090019537
:104FB00000200290A008039000200490802005901B
:104FC0008000069080000790002008904FF4005069
:104FD000099000200A906946BF4802F05DF901215E
:104FE000BD4802F084F90BB030BD10B5BC4802F0EA
:104FF00099F910BD10B5FFF753FF10BD01462A20E7
:1050000019B1012901D0022902D1B64A116000E08C
:10501000262070472DE9F04106462A27AF48803800
:10502000456B02E0AD488038456B05F0450000282F
:10503000F8D005F0040030B10327042002F083FA11
:105040003846BDE8F08105F0010028B101270120B4
:1050500002F079FA3846F4E702F00EFAB04202D0D4
:1050600010273846EDE740F2FF5002F06CFA0020BE
:1050700002F006FA04469C48204008B93846E0E7AA
:1050800004F0004008B11C20DBE704F0804008B1C8
:105090000920D6E704F0005008B10A20D1E704F057
:1050A000805008B10B20CCE704F0006008B10C2060
:1050B000C7E704F0806008B10D20C2E704F08070FB
:1050C00008B10E20BDE704F4000008B10F20B8E7D6
:1050D00004F4800008B11020B3E704F4001008B114
:1050E0001120AEE704F4801008B11220A9E704F4FF
:1050F000002008B11320A4E704F4802008B1142094
:105100009FE704F4003008B115209AE704F48030DA
:1051100008B1162095E704F4004008B1172090E785
:1051200004F4804008B118208BE704F4005008B163
:10513000192086E704F0080008B11A2081E73846F4
:105140007FE72DE9FC4107460D4600262A24002072
:1051500000900190082065490860102048604020B8
:1051600088600020C8604FF480600861084602F043
:1051700069F91020FFF74EFF04462A2C02D0204682
:10518000BDE8FC815A48008800045849086037206F
:105190004860402088600020C8604FF4806008614B
:1051A000084602F04FF93720FFF734FF04462A2C57
:1051B00001D02046E4E74F484F4908600820486086
:1051C000302088600220C86000200861012048610A
:1051D000084602F060F90020444908603320486026
:1051E000402088600020C8604FF480600861084655
:1051F00002F028F93320FFF70DFF04462A2C01D0D6
:105200002046BDE709E04FF4001002F092F920B10A
:1052100002F063F94DF82600761C30488038406B68
:1052200040F22A6108400028EDD0082002F081F900
:1052300028B1082002F087F904242046A0E70220C4
:1052400002F077F928B1022002F07DF9022420460D
:1052500096E7202002F06DF928B1202002F073F9C2
:10526000062420468CE74FF4007002F062F930B15A
:105270004FF4007002F067F90724204680E740F2FF
:10528000FF5002F060F900980006009901F47F4198
:1052900040EA0120009901F47F0140EA11200099C1
:1052A00040EA1160686001980006019901F47F41AD
:1052B00040EA0120019901F47F0140EA112001999F
:1052C00040EA1160286019E000100140001401401C
:1052D000001C014000F000104404024080800140A6
:1052E000002000107400002008E0FFFDDC380020E2
:1052F00070000020FFFF0F00F038002020463FE73D
:105300007CB505462A2400200090019002F0B8F8F0
:1053100000F0007010B10E2420467CBDFE490988C3
:1053200088B26946FFF70DFF04462A2C01D02046BB
:10533000F3E7012D38D1019800F48020002830D007
:10534000F54800880004F54908603720486040208F
:1053500088600020C860A8020861084602F072F860
:105360003720FFF757FE04462A2C01D02046D4E709
:105370000220EA490860062048604020886000203A
:10538000C8604FF480600861084602F05BF80620B0
:10539000FFF740FE04462A2C01D02046BDE72046F8
:1053A000BBE725242046B8E7019800F4803078B3A5
:1053B000D94800880004D949086037204860402057
:1053C00088600020C8604FF480600861084602F0E1
:1053D00039F83720FFF71EFE04462A2C01D020465C
:1053E0009BE70020CD490860062048604020886087
:1053F0000020C8604FF480600861084602F022F87F
:105400000620FFF707FE04462A2C02D0204684E738
:1054100001E0204681E7252420467EE770B504465A
:105420002A25BF480068032802D12725284670BDD9
:10543000BB48006838B1BA480068012803D0B848B2
:105440000068022830D1B4F5805F02D127252846B4
:10545000EDE7B4F5006F15D10120FFF751FF0546C8
:105460002A2D21D10120AF4908750020086048602D
:1054700088604FF40060C86000200861084601F0B1
:10548000A1FF11E00020FFF73BFF05462A2D0BD1BD
:105490000120A44908750020086048608860C86041
:1054A0000861084601F08EFF2846C0E770B5044643
:1054B0002A259A480460072098494860402088605F
:1054C0000020C8604FF480600861084601F0BAFF10
:1054D0000720FFF79FFD0546284670BD30B5014601
:1054E0002A2000228E4B1B7881F84E308A4B1B8875
:1054F000A1F84C308C4B1B681A0E93090B70C2F349
:1055000083034B7002F003038B70874B1B68C3F35C
:105510000742CA70844B1B88C3F307220A71824B6F
:105520001A784A715B681A0E1301CB807E4B5B6858
:10553000C3F30742CB8843EA1213CB8002F00F0378
:105540000B72794B9B88C3F30722D3094B72C2F3CA
:1055500080138B72C2F34013CB72C2F300130B7330
:1055600000234B736E4B1B681BB16D4B1B68012BEB
:105570003CD193071B0D0B616B4B1A790B6943EA06
:1055800082030B61684B9B681A0E0B6943EA921306
:105590000B61C2F3C2030B7502F007034B75624B3C
:1055A0009B68C3F3074253098B75C2F38203CB7523
:1055B00093075B0F0B765C4B1B89C3F307220B7EB3
:1055C00043EAD2130B760B695B1C4B640C7E4B6C6D
:1055D000A41C0125A5406B434B640C7A0123A34016
:1055E0008B64D1E9113463434B6421E04C4B1B685D
:1055F000022B1DD14C4B1A7993069B0A0B614A4B27
:105600009B681A0E0B6943EA02230B61464B9B68A9
:10561000C3F307420B6913430B61434B1B89C3F36D
:1056200007220B695B1CDB044B644FF400738B6433
:10563000C2F3801301F8193F93065B0E4B703A4B8F
:105640001A7A4B7843EAD2134B7002F07F038B70C7
:10565000354BDB681A0ED309CB70C2F341130B71C3
:10566000C2F382034B7193071B0F8B712E4BDB68C8
:10567000C3F307428B7943EA92138B71C2F3401351
:10568000CB7100230B7202F001034B72264B9B89F6
:10569000C3F30722D3098B72C2F38013CB72C2F318
:1056A00040130B73C2F300134B73C2F381038B736C
:1056B00002F00303CB731C4B1A7B53080B740123BA
:1056C0004B741A4B1B681A0ECA741939174B1B6896
:1056D000C3F307421402CC85144B1B88C3F3072283
:1056E000CB8D1343CB85114B1A7814060C635B6882
:1056F0001A0E0B6B43EA02440C630C4B5B68C3F35A
:1057000007420B6B43EA02240C63084B9B88C3F3EC
:1057100007220B6B13430BE070000020DC380020E5
:105720006C000020C4380020A4380020B4380020C9
:105730000B63FE4B1A7934235A54FC4B9B681A0EA8
:1057400035235A54F94B9B68C3F3074214068C6304
:10575000F64B1B89C3F307228B6B43EA02448C632D
:10576000F24B1A7A8B6B43EA02248C63EF4BDB68B3
:105770001A0E8B6B13438B63EC4BDB68C3F307424E
:105780003C235B5C43EA12143C235C5413071C0D5E
:10579000CC87E64B9B89C3F30722CB8F1343CB8780
:1057A000E24B1A7B540840235C54012441235C548F
:1057B00030BD70B52A25DE48446B01E0DC48446BFF
:1057C00004F045000028F9D004F0040028B10325B6
:1057D000042001F0B8FE284670BD04F0010028B195
:1057E0000125012001F0AFFE2846F5E740F2FF5009
:1057F00001F0A9FE2846EFE72DE9F04106460F46E5
:105800004FF02A08CA48456B01E0C948456B05F0CE
:1058100045000028F9D005F0040038B14FF0030826
:10582000042001F090FE4046BDE8F08105F0010043
:1058300030B14FF00108012001F085FE4046F3E74A
:1058400001F01AFEB04203D04FF010084046EBE7DB
:1058500040F2FF5001F077FE002001F011FE0446F7
:1058600004F4604018B9200C38804046DCE704F4AA
:10587000005008B11320D7E704F4804008B110208D
:10588000D2E704F4004008B10F20CDE74046CBE753
:1058900038B52A240120009001F0BFFD10B925245D
:1058A000204638BDA3480068042829D00020A2491A
:1058B000086002204860C02088600020C8604FF463
:1058C00080600861084601F0BDFDFFF772FF0446E5
:1058D0002A2C01D02046E4E7002001F0D1FD9349B5
:1058E0000860042001F0CCFD90494860082001F0D8
:1058F000C7FD8E4988600C2001F0C2FD8B49C8604D
:105900008C48006858B18B480068012807D0894846
:105910000068062803D087480068022817D10020B5
:105920008549086003204860402088600020C860E6
:105930004FF480600861084601F084FD6946032049
:10594000FFF75AFF04462A2C01D02046A9E77948E0
:10595000006804282FD0BDF8000078490860BDF821
:10596000000000047449086009204860C020886075
:105970000020C8604FF480600861084601F062FDB5
:10598000FFF717FF04462A2C01D0204689E70020A4
:1059900001F076FD6A490860042001F071FD684954
:1059A0004860082001F06CFD654988600C2001F01A
:1059B00067FD6349C8602A24204672E770B52A252E
:1059C0005B48446B01E05A48446B04F045000028F2
:1059D000F9D004F0040028B10325042001F0B3FD40
:1059E000284670BD40F2FF5001F0ADFD2846F8E7B3
:1059F00070B52A264FF480354D48446B02E06D1E89
:105A00004B48446B04F0450008B9002DF7D115B19F
:105A100004F0040028B10326042001F094FD304670
:105A200070BD04F0400028B12A26402001F08BFD13
:105A30003046F5E73046F3E770B52A254FF4803459
:105A400000E0641E24B1802001F073FD0028F8D02E
:105A500014B90325284670BD40F2FF5001F073FDD4
:105A60002846F8E72DE9F0412A24002600250027E2
:105A70004FF00008B22033490875002008604860E4
:105A80008860C8600861084601F09CFC032001F0B2
:105A9000B9FC012001F0B3FC0020274908604860F0
:105AA0008860C8604FF480600861084601F0CAFC55
:105AB000FFF7C2FF04462A2C02D02046BDE8F08141
:105AC0004FF4D5701C490860082048604020886069
:105AD0000020C8604FF480600861084601F0B2FC05
